{
  "contractName": "Main",
  "abi": [
    {
      "constant": true,
      "inputs": [],
      "name": "getString",
      "outputs": [
        {
          "internalType": "string",
          "name": "",
          "type": "string"
        }
      ],
      "payable": false,
      "stateMutability": "view",
      "type": "function"
    },
    {
      "constant": true,
      "inputs": [],
      "name": "getNumber",
      "outputs": [
        {
          "internalType": "uint256",
          "name": "",
          "type": "uint256"
        }
      ],
      "payable": false,
      "stateMutability": "view",
      "type": "function"
    },
    {
      "constant": true,
      "inputs": [],
      "name": "getNumberAndString",
      "outputs": [
        {
          "internalType": "uint256",
          "name": "",
          "type": "uint256"
        },
        {
          "internalType": "string",
          "name": "",
          "type": "string"
        }
      ],
      "payable": false,
      "stateMutability": "view",
      "type": "function"
    },
    {
      "constant": true,
      "inputs": [],
      "name": "getBool",
      "outputs": [
        {
          "internalType": "bool",
          "name": "",
          "type": "bool"
        }
      ],
      "payable": false,
      "stateMutability": "view",
      "type": "function"
    },
    {
      "constant": true,
      "inputs": [],
      "name": "getAll",
      "outputs": [
        {
          "internalType": "uint256",
          "name": "",
          "type": "uint256"
        },
        {
          "internalType": "string",
          "name": "",
          "type": "string"
        },
        {
          "internalType": "bool",
          "name": "",
          "type": "bool"
        }
      ],
      "payable": false,
      "stateMutability": "view",
      "type": "function"
    },
    {
      "constant": true,
      "inputs": [
        {
          "internalType": "uint256",
          "name": "value",
          "type": "uint256"
        }
      ],
      "name": "addAndReturn",
      "outputs": [
        {
          "internalType": "uint256",
          "name": "",
          "type": "uint256"
        }
      ],
      "payable": false,
      "stateMutability": "view",
      "type": "function"
    }
  ],
  "bytecode": "0x60806040526040518060400160405280600581526020017f68656c6c6f0000000000000000000000000000000000000000000000000000008152506000908051906020019061004f929190610083565b506101f46001556001600260006101000a81548160ff02191690831515021790555034801561007d57600080fd5b50610128565b828054600181600116156101000203166002900490600052602060002090601f016020900481019282601f106100c457805160ff19168380011785556100f2565b828001600101855582156100f2579182015b828111156100f15782518255916020019190600101906100d6565b5b5090506100ff9190610103565b5090565b61012591905b80821115610121576000816000905550600101610109565b5090565b90565b610505806101376000396000f3fe608060405234801561001057600080fd5b50600436106100625760003560e01c806312a7b91414610067578063154e0c2f146100895780634fa522db1461011357806353ed51431461015557806389ea642f146101ea578063f2c9ecd81461026d575b600080fd5b61006f61028b565b604051808215151515815260200191505060405180910390f35b6100916102a2565b6040518083815260200180602001828103825283818151815260200191508051906020019080838360005b838110156100d75780820151818401526020810190506100bc565b50505050905090810190601f1680156101045780820380516001836020036101000a031916815260200191505b50935050505060405180910390f35b61013f6004803603602081101561012957600080fd5b810190808035906020019092919050505061034f565b6040518082815260200191505060405180910390f35b61015d610362565b604051808481526020018060200183151515158152602001828103825284818151815260200191508051906020019080838360005b838110156101ad578082015181840152602081019050610192565b50505050905090810190601f1680156101da5780820380516001836020036101000a031916815260200191505b5094505050505060405180910390f35b6101f2610424565b6040518080602001828103825283818151815260200191508051906020019080838360005b83811015610232578082015181840152602081019050610217565b50505050905090810190601f16801561025f5780820380516001836020036101000a031916815260200191505b509250505060405180910390f35b6102756104c6565b6040518082815260200191505060405180910390f35b6000600260009054906101000a900460ff16905090565b600060606001546000808054600181600116156101000203166002900480601f0160208091040260200160405190810160405280929190818152602001828054600181600116156101000203166002900480156103405780601f1061031557610100808354040283529160200191610340565b820191906000526020600020905b81548152906001019060200180831161032357829003601f168201915b50505050509050915091509091565b6000808260015401905080915050919050565b6000606060006001546000600260009054906101000a900460ff16818054600181600116156101000203166002900480601f0160208091040260200160405190810160405280929190818152602001828054600181600116156101000203166002900480156104125780601f106103e757610100808354040283529160200191610412565b820191906000526020600020905b8154815290600101906020018083116103f557829003601f168201915b50505050509150925092509250909192565b606060008054600181600116156101000203166002900480601f0160208091040260200160405190810160405280929190818152602001828054600181600116156101000203166002900480156104bc5780601f10610491576101008083540402835291602001916104bc565b820191906000526020600020905b81548152906001019060200180831161049f57829003601f168201915b5050505050905090565b600060015490509056fea265627a7a7231582019fd659cac819379eb81ca115e4661fa81098e370f972277b8e5c3d9736c6be164736f6c63430005100032",
  "source": "// SPDX-License-Identifier: MIT\npragma solidity >=0.4.22 <0.9.0;\n\ncontract Main {\n  string name = 'hello';\n  uint256 number = 500;\n  bool isBool = true;\n\n\n  function getString() public view returns (string memory) {\n    return name;\n  }\n\n  function getNumber() public view returns (uint) {\n    return number;\n  }\n\n  function getNumberAndString() public view returns (uint, string memory) {\n    return ( number, name );\n  }\n\n  function getBool() public view returns (bool) {\n    return isBool;\n  }\n\n  function getAll() public view returns (uint, string memory, bool) {\n    return ( number, name, isBool );\n  }\n\n  function addAndReturn(uint256 value) public view returns(uint) {\n    uint256 newNumber = number + value;\n    return newNumber;\n  }\n\n}",
  "sourcePath": "/Users/epicbadtiming/Projects/Personal/contract (Practice)/contracts/Main.sol",
  "compiler": {
    "name": "solc",
    "version": "0.5.16+commit.9c3226ce.Emscripten.clang"
  },
  "schemaVersion": "3.3.3",
  "updatedAt": "2021-03-10T13:43:58.554Z",
  "networkType": "ethereum",
  "devdoc": {
    "methods": {}
  },
  "userdoc": {
    "methods": {}
  }
}